{
  "_format": "hh-sol-artifact-1",
  "contractName": "Baumkuchen",
  "sourceName": "contracts/Baumkuchen.sol",
  "abi": [
    {
      "inputs": [],
      "stateMutability": "payable",
      "type": "constructor"
    },
    {
      "inputs": [],
      "name": "calculateScore",
      "outputs": [],
      "stateMutability": "nonpayable",
      "type": "function"
    },
    {
      "inputs": [
        {
          "internalType": "uint256",
          "name": "questionId",
          "type": "uint256"
        }
      ],
      "name": "createAnswer",
      "outputs": [],
      "stateMutability": "nonpayable",
      "type": "function"
    },
    {
      "inputs": [],
      "name": "createQuestion",
      "outputs": [],
      "stateMutability": "nonpayable",
      "type": "function"
    },
    {
      "inputs": [],
      "name": "getBalance",
      "outputs": [
        {
          "internalType": "uint256",
          "name": "",
          "type": "uint256"
        }
      ],
      "stateMutability": "view",
      "type": "function"
    },
    {
      "inputs": [],
      "name": "getQuestions",
      "outputs": [
        {
          "components": [
            {
              "internalType": "uint256",
              "name": "userId",
              "type": "uint256"
            },
            {
              "internalType": "uint256",
              "name": "good",
              "type": "uint256"
            }
          ],
          "internalType": "struct Baumkuchen.Question[]",
          "name": "",
          "type": "tuple[]"
        }
      ],
      "stateMutability": "view",
      "type": "function"
    },
    {
      "inputs": [
        {
          "internalType": "uint256",
          "name": "answerId",
          "type": "uint256"
        }
      ],
      "name": "goodAnswer",
      "outputs": [],
      "stateMutability": "nonpayable",
      "type": "function"
    },
    {
      "inputs": [
        {
          "internalType": "uint256",
          "name": "questionId",
          "type": "uint256"
        }
      ],
      "name": "goodQuestion",
      "outputs": [],
      "stateMutability": "nonpayable",
      "type": "function"
    },
    {
      "inputs": [
        {
          "internalType": "address",
          "name": "to",
          "type": "address"
        },
        {
          "internalType": "uint256",
          "name": "amount",
          "type": "uint256"
        }
      ],
      "name": "send",
      "outputs": [],
      "stateMutability": "nonpayable",
      "type": "function"
    }
  ],
  "bytecode": "0x608060405261004c6040518060400160405280602081526020017f48657265206973206d7920666972737420736d61727420636f6e74726163742181525061005160201b6104861760201c565b6101cb565b6100ed8160405160240161006591906101a9565b6040516020818303038152906040527f41304fac000000000000000000000000000000000000000000000000000000007bffffffffffffffffffffffffffffffffffffffffffffffffffffffff19166020820180517bffffffffffffffffffffffffffffffffffffffffffffffffffffffff83818316178352505050506100f060201b60201c565b50565b60008151905060006a636f6e736f6c652e6c6f679050602083016000808483855afa5050505050565b600081519050919050565b600082825260208201905092915050565b60005b83811015610153578082015181840152602081019050610138565b60008484015250505050565b6000601f19601f8301169050919050565b600061017b82610119565b6101858185610124565b9350610195818560208601610135565b61019e8161015f565b840191505092915050565b600060208201905081810360008301526101c38184610170565b905092915050565b610a59806101da6000396000f3fe608060405234801561001057600080fd5b50600436106100885760003560e01c806360c5c9721161005b57806360c5c972146100db5780637913e8d6146100f757806397221ab714610113578063d0679d341461013157610088565b806312065fe01461008d578063304e05bb146100ab5780634eaa708a146100b5578063518db973146100bf575b600080fd5b61009561014d565b6040516100a29190610561565b60405180910390f35b6100b3610155565b005b6100bd610157565b005b6100d960048036038101906100d491906105ad565b610316565b005b6100f560048036038101906100f091906105ad565b610319565b005b610111600480360381019061010c91906105ad565b61031c565b005b61011b61031f565b60405161012891906106c7565b60405180910390f35b61014b60048036038101906101469190610747565b610392565b005b600047905090565b565b60005b60008054905081101561024f573373ffffffffffffffffffffffffffffffffffffffff166000828154811061019257610191610787565b5b906000526020600020906002020160000160009054906101000a900473ffffffffffffffffffffffffffffffffffffffff1673ffffffffffffffffffffffffffffffffffffffff160361023c5760026040518060400160405280838152602001600081525090806001815401808255809150506001900390600052602060002090600202016000909190919091506000820151816000015560208201518160010155505050610314565b8080610247906107e5565b91505061015a565b5060026040518060400160405280600080549050815260200160008152509080600181540180825580915050600190039060005260206000209060020201600090919091909150600082015181600001556020820151816001015550506000806001816001815401808255809150500390600052602060002090600202019050338160000160006101000a81548173ffffffffffffffffffffffffffffffffffffffff021916908373ffffffffffffffffffffffffffffffffffffffff160217905550505b565b50565b50565b50565b60606002805480602002602001604051908101604052809291908181526020016000905b8282101561038957838290600052602060002090600202016040518060400160405290816000820154815260200160018201548152505081526020019060010190610343565b50505050905090565b804710156103d5576040517f08c379a00000000000000000000000000000000000000000000000000000000081526004016103cc9061088a565b60405180910390fd5b60008273ffffffffffffffffffffffffffffffffffffffff16826040516103fb906108db565b60006040518083038185875af1925050503d8060008114610438576040519150601f19603f3d011682016040523d82523d6000602084013e61043d565b606091505b5050905080610481576040517f08c379a000000000000000000000000000000000000000000000000000000000815260040161047890610962565b60405180910390fd5b505050565b61051c8160405160240161049a9190610a01565b6040516020818303038152906040527f41304fac000000000000000000000000000000000000000000000000000000007bffffffffffffffffffffffffffffffffffffffffffffffffffffffff19166020820180517bffffffffffffffffffffffffffffffffffffffffffffffffffffffff838183161783525050505061051f565b50565b60008151905060006a636f6e736f6c652e6c6f679050602083016000808483855afa5050505050565b6000819050919050565b61055b81610548565b82525050565b60006020820190506105766000830184610552565b92915050565b600080fd5b61058a81610548565b811461059557600080fd5b50565b6000813590506105a781610581565b92915050565b6000602082840312156105c3576105c261057c565b5b60006105d184828501610598565b91505092915050565b600081519050919050565b600082825260208201905092915050565b6000819050602082019050919050565b61060f81610548565b82525050565b60408201600082015161062b6000850182610606565b50602082015161063e6020850182610606565b50505050565b60006106508383610615565b60408301905092915050565b6000602082019050919050565b6000610674826105da565b61067e81856105e5565b9350610689836105f6565b8060005b838110156106ba5781516106a18882610644565b97506106ac8361065c565b92505060018101905061068d565b5085935050505092915050565b600060208201905081810360008301526106e18184610669565b905092915050565b600073ffffffffffffffffffffffffffffffffffffffff82169050919050565b6000610714826106e9565b9050919050565b61072481610709565b811461072f57600080fd5b50565b6000813590506107418161071b565b92915050565b6000806040838503121561075e5761075d61057c565b5b600061076c85828601610732565b925050602061077d85828601610598565b9150509250929050565b7f4e487b7100000000000000000000000000000000000000000000000000000000600052603260045260246000fd5b7f4e487b7100000000000000000000000000000000000000000000000000000000600052601160045260246000fd5b60006107f082610548565b91507fffffffffffffffffffffffffffffffffffffffffffffffffffffffffffffffff8203610822576108216107b6565b5b600182019050919050565b600082825260208201905092915050565b7f6c6f7720636f6e74726163742062616c616e6365000000000000000000000000600082015250565b600061087460148361082d565b915061087f8261083e565b602082019050919050565b600060208201905081810360008301526108a381610867565b9050919050565b600081905092915050565b50565b60006108c56000836108aa565b91506108d0826108b5565b600082019050919050565b60006108e6826108b8565b9150819050919050565b7f4661696c656420746f207769746864726177206d6f6e65792066726f6d20636f60008201527f6e74726163742e00000000000000000000000000000000000000000000000000602082015250565b600061094c60278361082d565b9150610957826108f0565b604082019050919050565b6000602082019050818103600083015261097b8161093f565b9050919050565b600081519050919050565b60005b838110156109ab578082015181840152602081019050610990565b60008484015250505050565b6000601f19601f8301169050919050565b60006109d382610982565b6109dd818561082d565b93506109ed81856020860161098d565b6109f6816109b7565b840191505092915050565b60006020820190508181036000830152610a1b81846109c8565b90509291505056fea2646970667358221220369c97c825d1c148f3fa0b8a1448c03c30723998822283abd3397b4972d7a06c64736f6c63430008110033",
  "linkReferences": {},
  "deployedLinkReferences": {}
}