{
  "_format": "hh-sol-artifact-1",
  "contractName": "Baumkuchen",
  "sourceName": "contracts/Baumkuchen.sol",
  "abi": [
    {
      "inputs": [],
      "stateMutability": "payable",
      "type": "constructor"
    },
    {
      "inputs": [],
      "name": "calculateScore",
      "outputs": [],
      "stateMutability": "nonpayable",
      "type": "function"
    },
    {
      "inputs": [
        {
          "internalType": "uint256",
          "name": "questionId",
          "type": "uint256"
        }
      ],
      "name": "createAnswer",
      "outputs": [],
      "stateMutability": "nonpayable",
      "type": "function"
    },
    {
      "inputs": [],
      "name": "createQuestion",
      "outputs": [],
      "stateMutability": "nonpayable",
      "type": "function"
    },
    {
      "inputs": [],
      "name": "deposit",
      "outputs": [],
      "stateMutability": "payable",
      "type": "function"
    },
    {
      "inputs": [],
      "name": "getBalance",
      "outputs": [
        {
          "internalType": "uint256",
          "name": "",
          "type": "uint256"
        }
      ],
      "stateMutability": "view",
      "type": "function"
    },
    {
      "inputs": [],
      "name": "getQuestions",
      "outputs": [
        {
          "components": [
            {
              "internalType": "uint256",
              "name": "userId",
              "type": "uint256"
            },
            {
              "internalType": "uint256",
              "name": "good",
              "type": "uint256"
            }
          ],
          "internalType": "struct Baumkuchen.Question[]",
          "name": "",
          "type": "tuple[]"
        }
      ],
      "stateMutability": "view",
      "type": "function"
    },
    {
      "inputs": [
        {
          "internalType": "uint256",
          "name": "answerId",
          "type": "uint256"
        }
      ],
      "name": "goodAnswer",
      "outputs": [],
      "stateMutability": "nonpayable",
      "type": "function"
    },
    {
      "inputs": [
        {
          "internalType": "uint256",
          "name": "questionId",
          "type": "uint256"
        }
      ],
      "name": "goodQuestion",
      "outputs": [],
      "stateMutability": "nonpayable",
      "type": "function"
    },
    {
      "inputs": [
        {
          "internalType": "address",
          "name": "to",
          "type": "address"
        },
        {
          "internalType": "uint256",
          "name": "amount",
          "type": "uint256"
        }
      ],
      "name": "send",
      "outputs": [],
      "stateMutability": "nonpayable",
      "type": "function"
    }
  ],
  "bytecode": "0x608060405261004c6040518060400160405280602081526020017f48657265206973206d7920666972737420736d61727420636f6e74726163742181525061005160201b6104f81760201c565b6101cb565b6100ed8160405160240161006591906101a9565b6040516020818303038152906040527f41304fac000000000000000000000000000000000000000000000000000000007bffffffffffffffffffffffffffffffffffffffffffffffffffffffff19166020820180517bffffffffffffffffffffffffffffffffffffffffffffffffffffffff83818316178352505050506100f060201b60201c565b50565b60008151905060006a636f6e736f6c652e6c6f679050602083016000808483855afa5050505050565b600081519050919050565b600082825260208201905092915050565b60005b83811015610153578082015181840152602081019050610138565b60008484015250505050565b6000601f19601f8301169050919050565b600061017b82610119565b6101858185610124565b9350610195818560208601610135565b61019e8161015f565b840191505092915050565b600060208201905081810360008301526101c38184610170565b905092915050565b610acb806101da6000396000f3fe6080604052600436106100865760003560e01c806360c5c9721161005957806360c5c9721461010d5780637913e8d61461013657806397221ab71461015f578063d0679d341461018a578063d0e30db0146101b357610086565b806312065fe01461008b578063304e05bb146100b65780634eaa708a146100cd578063518db973146100e4575b600080fd5b34801561009757600080fd5b506100a06101bd565b6040516100ad91906105d3565b60405180910390f35b3480156100c257600080fd5b506100cb6101c5565b005b3480156100d957600080fd5b506100e26101c7565b005b3480156100f057600080fd5b5061010b6004803603810190610106919061061f565b610386565b005b34801561011957600080fd5b50610134600480360381019061012f919061061f565b610389565b005b34801561014257600080fd5b5061015d6004803603810190610158919061061f565b61038c565b005b34801561016b57600080fd5b5061017461038f565b6040516101819190610739565b60405180910390f35b34801561019657600080fd5b506101b160048036038101906101ac91906107b9565b610402565b005b6101bb6104f6565b005b600047905090565b565b60005b6000805490508110156102bf573373ffffffffffffffffffffffffffffffffffffffff1660008281548110610202576102016107f9565b5b906000526020600020906002020160000160009054906101000a900473ffffffffffffffffffffffffffffffffffffffff1673ffffffffffffffffffffffffffffffffffffffff16036102ac5760026040518060400160405280838152602001600081525090806001815401808255809150506001900390600052602060002090600202016000909190919091506000820151816000015560208201518160010155505050610384565b80806102b790610857565b9150506101ca565b5060026040518060400160405280600080549050815260200160008152509080600181540180825580915050600190039060005260206000209060020201600090919091909150600082015181600001556020820151816001015550506000806001816001815401808255809150500390600052602060002090600202019050338160000160006101000a81548173ffffffffffffffffffffffffffffffffffffffff021916908373ffffffffffffffffffffffffffffffffffffffff160217905550505b565b50565b50565b50565b60606002805480602002602001604051908101604052809291908181526020016000905b828210156103f9578382906000526020600020906002020160405180604001604052908160008201548152602001600182015481525050815260200190600101906103b3565b50505050905090565b80471015610445576040517f08c379a000000000000000000000000000000000000000000000000000000000815260040161043c906108fc565b60405180910390fd5b60008273ffffffffffffffffffffffffffffffffffffffff168260405161046b9061094d565b60006040518083038185875af1925050503d80600081146104a8576040519150601f19603f3d011682016040523d82523d6000602084013e6104ad565b606091505b50509050806104f1576040517f08c379a00000000000000000000000000000000000000000000000000000000081526004016104e8906109d4565b60405180910390fd5b505050565b565b61058e8160405160240161050c9190610a73565b6040516020818303038152906040527f41304fac000000000000000000000000000000000000000000000000000000007bffffffffffffffffffffffffffffffffffffffffffffffffffffffff19166020820180517bffffffffffffffffffffffffffffffffffffffffffffffffffffffff8381831617835250505050610591565b50565b60008151905060006a636f6e736f6c652e6c6f679050602083016000808483855afa5050505050565b6000819050919050565b6105cd816105ba565b82525050565b60006020820190506105e860008301846105c4565b92915050565b600080fd5b6105fc816105ba565b811461060757600080fd5b50565b600081359050610619816105f3565b92915050565b600060208284031215610635576106346105ee565b5b60006106438482850161060a565b91505092915050565b600081519050919050565b600082825260208201905092915050565b6000819050602082019050919050565b610681816105ba565b82525050565b60408201600082015161069d6000850182610678565b5060208201516106b06020850182610678565b50505050565b60006106c28383610687565b60408301905092915050565b6000602082019050919050565b60006106e68261064c565b6106f08185610657565b93506106fb83610668565b8060005b8381101561072c57815161071388826106b6565b975061071e836106ce565b9250506001810190506106ff565b5085935050505092915050565b6000602082019050818103600083015261075381846106db565b905092915050565b600073ffffffffffffffffffffffffffffffffffffffff82169050919050565b60006107868261075b565b9050919050565b6107968161077b565b81146107a157600080fd5b50565b6000813590506107b38161078d565b92915050565b600080604083850312156107d0576107cf6105ee565b5b60006107de858286016107a4565b92505060206107ef8582860161060a565b9150509250929050565b7f4e487b7100000000000000000000000000000000000000000000000000000000600052603260045260246000fd5b7f4e487b7100000000000000000000000000000000000000000000000000000000600052601160045260246000fd5b6000610862826105ba565b91507fffffffffffffffffffffffffffffffffffffffffffffffffffffffffffffffff820361089457610893610828565b5b600182019050919050565b600082825260208201905092915050565b7f6c6f7720636f6e74726163742062616c616e6365000000000000000000000000600082015250565b60006108e660148361089f565b91506108f1826108b0565b602082019050919050565b60006020820190508181036000830152610915816108d9565b9050919050565b600081905092915050565b50565b600061093760008361091c565b915061094282610927565b600082019050919050565b60006109588261092a565b9150819050919050565b7f4661696c656420746f207769746864726177206d6f6e65792066726f6d20636f60008201527f6e74726163742e00000000000000000000000000000000000000000000000000602082015250565b60006109be60278361089f565b91506109c982610962565b604082019050919050565b600060208201905081810360008301526109ed816109b1565b9050919050565b600081519050919050565b60005b83811015610a1d578082015181840152602081019050610a02565b60008484015250505050565b6000601f19601f8301169050919050565b6000610a45826109f4565b610a4f818561089f565b9350610a5f8185602086016109ff565b610a6881610a29565b840191505092915050565b60006020820190508181036000830152610a8d8184610a3a565b90509291505056fea2646970667358221220c5e387cfb2a747e7660e8b226d2348b7d54fb144995011c067e8f193dd79442864736f6c63430008110033",
  "linkReferences": {},
  "deployedLinkReferences": {}
}